:060000000A128A113F29DB
:10000800F000030EF1000B1913210C1828218C188D
:0C0018003C21710E8300F00E700E0900F8
:100200008A010A1482073F3406345B344F34663463
:100210006D347D3407347F346F3477347C34393433
:100220005E347934713403138312FC3081000B1176
:10023000031383128801771823291E297308870066
:1002400088147714080074088700081477100800D1
:10025000031383120B308F00DC308E000C10F20A77
:100260007208FB00F901FA01A6216430FB07AF21F7
:100270000A30FB07B82108008C10860A08004821C4
:10028000592160216D217C218A2197219F214529B7
:10029000031783168801890103138316850106104D
:1002A00087018801031383128501061487018801E1
:1002B0000800031383160F140F138F160F16080070
:1002C0000313831681128111011581100114031388
:1002D0008312FC3081000B1108000313831290106D
:1002E00090119012101610131014031383120B3078
:1002F0008F00DC308E00080003138316F330920069
:1003000003138312921412141217921612169215D6
:1003100012150800031383160C148C140313831294
:100320000B178B178B160B110C108C1008000F304D
:100330007205F500F0307205F600F60E08007A0836
:100340000021F30079080021F400080064307B02EA
:10035000FB0003138312031C0800F80AA6290A30C5
:100360007B02FB0003138312031C0800F90AAF2968
:060370007B08FA00080002
:04400E00D420FF3F7C
:00000001FF
